:1000000008C100000C9411090C9442090C94730966
:100010000C94A4090C94D5090C94060A0C94370A84
:100020000C94680A20C100000C94100E0C948D0EE4
:100030001AC1000018C1000016C1000014C1000060
:1000400012C1000010C100000EC100000CC1000070
:100050000AC1000008C1000006C100000C946F0D29
:1000600002C1000000C10000FEC00000FCC0000092
:10007000FAC00000F8C00000F6C00000F4C00000A4
:10008000F2C00000F0C00000EEC00000ECC00000B4
:10009000EAC00000E8C00000020B2E0B500B500B12
:1000A000500B500B500B500B500B500B500B500B78
:1000B000500B500B460B3E0B360B500B500B500B9E
:1000C000500B500B500B500B280B0E0B160B200B2C
:1000D000FCF3CF3F012902290429082910292029EE
:1000E00040298029012C022C0126022604260826FC
:1000F0001026202640268026402C802C0123022317
:1001000004230823102320234023802301200220DE
:10011000042008201020202040208020102C202C9B
:10012000012F022F042F082F102F202F402F802F58
:100130007EFE7EFD7EFB7EF77EEF7EDF7EBF7E7FD6
:1001400000010000F1011200020000AE01430003B3
:100150000000AA0104010309049001180203090424
:10016000780116030309046A010C0C033100320004
:1001700033003400350000001603550053004200E0
:100180002000530065007200690061006C000000EF
:1001900018035400650065006E0073007900640068
:1001A000750069006E006F00000004030904090275
:1001B0004300020100C032090400000102020100F4
:1001C0000524001001052401000104240206052471
:1001D0000600010705820308004009040100020A25
:1001E00000000007050302400000070584024000EC
:1001F000001201000202000020C016830400010169
:100200000203010001C10201803601813600FC05B4
:10021000721211241FBECFEFD0E2DEBFCDBF12E0BD
:10022000A0E0B1E0E8E8F8E200E00BBF02C0079010
:100230000D92A839B107D9F722E0A8E9B2E001C0D0
:100240001D92A63EB207E1F711E0C9E0D1E004C07B
:100250002197FE010E943914C730D107C9F70E94C7
:1002600079100C944214CCCEDC01ED91FD9180818B
:10027000ED91FD919081ED91FD916C9163708E23D4
:1002800009F064609F2309F06860E1E5F1E0E60FA2
:10029000F11D659565956D936D917D918D919D9104
:1002A000099423C01AC012C016C010C01EC009C0D5
:1002B00014C013C006C019C009C00DC007C00DC0CE
:1002C00014C062507040804090400BC0615070403C
:1002D0008040904006C06E5F01C06F5F7F4F8F4FC0
:1002E0009F4F9E938E937E936E9308958091BE024E
:1002F0009091BF02B9CF8091BC029091BD02B4CF62
:100300008091BA029091BB02AFCF8091B8029091D8
:10031000B902AACF8091B6029091B702A5CF809181
:10032000B4029091B502A0CF8091B2029091B30235
:100330009BCF8091B0029091B10296CF8330D9F1DA
:1003400060F4813031F170F57093B1026093B002C6
:1003500041E069E971E080E048C08331F1F160F487
:10036000823109F045C07093BD026093BC0241E048
:100370006BE771E086E039C0843231F18532C1F536
:100380007093BB026093BA0241E060E871E085E0DF
:100390002CC07093B3026093B20241E064E971E053
:1003A00081E023C07093B5026093B40241E06FE82E
:1003B00071E082E01AC07093B7026093B60241E028
:1003C0006AE871E083E011C07093B9026093B802EB
:1003D00041E065E871E084E008C07093BF0260937B
:1003E000BE0241E066E771E087E0DCD681E0089577
:1003F00080E008950F931F93CF93DF93EC01062FB6
:10040000142F862F0E945C0B812F0E945C0B202FE3
:1004100030E0220F331FF901EB52FF4FE4914E2FD2
:1004200050E059834883F901EC52FF4F24912C830B
:10043000A12FB0E0AA0FBB1FFD01EB52FF4FE491CB
:100440008E2F90E09B838A83FD01EC52FF4FA49195
:10045000AD831F82188619861A86E0E4FFE1319782
:10046000F1F7DA01EC91E22321E009F420E0FC014C
:1004700090818D81892309F022602E83BE01802F17
:100480005DDF8B87BE01812F59DF2B8590E0820FC6
:10049000911D8B87DF91CF911F910F91089581302E
:1004A000910581F01CF4892BC9F0089582309105E3
:1004B00019F0039769F008958EE027E030E0E8E056
:1004C000F0E011C089E123E130E0E2E1F0E00BC0AF
:1004D0008AE124E030E0E5E0F0E005C080E12AE2D6
:1004E00030E0E9E2F0E04115510519F40E94850B76
:1004F00004C0672B31F40E948B0BF9010E94850B1D
:1005000005C00E94850BF9010E948B0BBA010C9467
:10051000F10A40E050E060E070E080E090E0BFDF92
:1005200040E050E060E070E082E090E0B8DF40E062
:1005300050E060E070E081E090E0B1DF40E050E04A
:1005400060E070E083E090E0AACF399A389A699A27
:10055000809A819A829A419840987198889889984F
:100560008A983A9A42983F9A3D9A3B9A479845987A
:10057000E0E9F0E080818F7D8083439887988F98B1
:10058000EEE7F0E080818F778083089810980998D3
:1005900011980A98129827982F986C9874986D98CB
:1005A00075986E9A6F9A259A689A579A3C9A839A88
:1005B000849A3E9A559A549A269AABCF3F924F927C
:1005C0005F926F927F928F929F92AF92BF92CF92E3
:1005D000DF92EF92FF920F931F93CF93DF935C0113
:1005E0004B01E901302E0FB6F8944090D1025090A3
:1005F000D2026090D3027090D4020FBE50DF40E070
:1006000050E060E971E0DD27C701FF0CAA0BBB0BCE
:100610004C155D0504F5FB013197F1F7FE010E94D1
:100620007E0C3E1202C04F5F5F4F0FB6F8940091F0
:10063000D1021091D2022091D3023091D4020FBE88
:10064000041915092609370980179107A207B3076E
:10065000F8F6C1E001C0C0E040E050E0B401C501DF
:100660001EDF8C2F90E0DF91CF911F910F91FF90B3
:10067000EF90DF90CF90BF90AF909F908F907F9042
:100680006F905F904F903F900895CF92DF92EF92DE
:10069000FF920F9385E0C82ED12C98EEE92E93E0BF
:1006A000F92E00E02DE230E048EC50E061E070E02F
:1006B00080E090E083DF0F91FF90EF90DF90CF908C
:1006C0000895CF92DF92EF92FF920F93CF93DF9333
:1006D0009C01215031092330310508F04AC08617AA
:1006E000970709F444C0681779077CF4880F991FAD
:1006F000FC01E050FF4F2081318175E0C72ED12CE5
:10070000E8EEEE2EE3E0FE2E29C0861797078CF563
:10071000880F991FEC01C050DF4F2881398145E0D7
:10072000C42ED12C58EEE52E53E0F52E00E048EC17
:1007300050E061E070E080E090E040DF0097D9F4A5
:100740002881398101E048EC50E061E070E080E010
:1007500090E034DF009779F42881398100E048EC9B
:1007600050E060E070E080E090E028DF04C080E0CE
:1007700001C082E090E0DF91CF910F91FF90EF9068
:10078000DF90CF900895CF92DF92EF92FF920F9378
:1007900085E0C82ED12C98EEE92E93E0F92E00E0EA
:1007A0002BE130E04FEF50E061E070E083E090E05B
:1007B00005DF009759F425E230E04FEF50E060E0AC
:1007C00070E083E090E0FADE009701F40F91FF9073
:1007D000EF90DF90CF900895CF92DF92EF92FF924B
:1007E0000F93009759F465E0C62ED12C78EEE72ED2
:1007F00073E0F72E00E02BE130E02FC0813091054F
:1008000059F445E0C42ED12C58EEE52E53E0F52ED8
:1008100000E024E230E010C0029769F41F9911C093
:1008200025E0C22ED12C38EEE32E33E0F32E00E08B
:1008300025E230E001C01FC04FEF50E060E070E003
:1008400010C0649912C085E0C82ED12C98EEE92E14
:1008500093E0F92E00E025E230E04FEF50E061E058
:1008600070E083E090E0AADE06C00F91FF90EF9069
:10087000DF90CF9088CF0F91FF90EF90DF90CF90D7
:1008800008958F929F92AF92BF92CF92DF92EF9294
:10089000FF920F93CF93DF93892B51F044EA842E7C
:1008A00042E0942E56E0A52EB12CC2E0D0E009C063
:1008B00028E9822E22E0922E38E1A32EB12CC1E04D
:1008C000D0E085E0C82ED12C9CEDE92E95E0F92EE4
:1008D00000E095014CED50E060E070E0CE016EDE8E
:1008E000892BB9F468EC70E080E090E00E94AF0DD5
:1008F000950147E350E061E070E0CE015FDE892BB7
:1009000041F4F894F40117821086118612867894C7
:1009100002C081E090E0DF91CF910F91FF90EF90C6
:10092000DF90CF90BF90AF909F908F9008952F92BF
:100930003F924F925F926F927F928F929F92AF926F
:10094000BF92CF92DF92EF92FF920F931F93CF93BC
:10095000DF93CDB7DEB72F970FB6F894DEBF0FBE8B
:10096000CDBF0FB6F8942091D1023091D2024091C0
:10097000D3025091D4020FBE29873A874B875C87F8
:10098000892B41F032E0232E312C44EA52E05F877C
:100990004E8707C022242394312C88E992E09F8758
:1009A0008E876115710591F06130710591F06230AB
:1009B000710591F06330710591F06430710591F02B
:1009C0006530710589F400E010E00EC004EA1BE018
:1009D0000BC000E519E008C00CEF16E005C008EAFE
:1009E00014E002C004E512E0EE85FF8583858230C5
:1009F00028F4F8948E859F8537DC01C0F894EE8545
:100A0000FF8587819085A185B28578949C838B83AF
:100A10009801281B390B3A83298320E0C12CD12C63
:100A2000760189819A8197FF03C0919581959109FB
:100A300006970CF4BAC02111B7C062E070E080E004
:100A400090E00E94AF0DEE85FF858385823028F40B
:100A5000F8948E859F8508DC01C0F894EE85FF85AB
:100A600047805084618472847894980124193509F0
:100A70003A832983B901330F880B990B0E94221303
:100A80004B015C019B01AC010E9487126D837E8348
:100A90008F8398872CEA35EC47E257E3C501B40110
:100AA0000E94D6139B01AC01C701B6010E948712B8
:100AB0006B017C0120E030E04FE753E40E94D21349
:100AC00018168CF020E030E04FE753ECC701B60178
:100AD0000E94EB1287FF0DC0C12CD12C9FE7E92E9D
:100AE00093ECF92E06C0C12CD12C8FE7E82E83E4BD
:100AF000F82EA70196016D817E818F8198850E94D5
:100B000087124B015C01B2014B815C81641B750B48
:100B1000072E000C880B990B0E94221320E030E076
:100B200040EA51E40E94D6139B01AC01C501B40117
:100B30000E9486120E94EF12AB016F3F710509F00F
:100B400044F441308FEF58074CF0141615061CF092
:100B500007C04FEF50E061E070E007C041E05FEF99
:100B600051954195510960E070E0C10198DC0FB6E4
:100B7000F8948091D1029091D202A091D302B091C9
:100B8000D4020FBE29853A854B855C85821B930B69
:100B9000A40BB50B21E08D3D9540A105B10508F4EE
:100BA00020E05C824B823DCF21E040E050E060E0FD
:100BB00070E0C1012D8773DC81E090E02D8521116B
:100BC00002C080E090E02F960FB6F894DEBF0FBE13
:100BD000CDBFDF91CF911F910F91FF90EF90DF90EC
:100BE000CF90BF90AF909F908F907F906F905F90CD
:100BF0004F903F902F90089543E062E084EA92E0A6
:100C0000F9DB40E061E088E992E0F4CBFB01019080
:100C10000020E9F73197AF01461B570BDC01ED913E
:100C2000FC910280F381E02D0994F0CF0F931F9384
:100C3000CF93DF93EC01EADF8C01CE010E94F60F27
:100C4000800F911FDF91CF911F910F9108950F9306
:100C50001F93CF93DF93EC01462F50E060E070E0EC
:100C600020E00E9410108C01CE010E94F60F800F30
:100C7000911FDF91CF911F910F9108950F931F93B3
:100C8000CF93DF93EC010E946C108C01CE010E9487
:100C9000F60F800F911FDF91CF911F910F91089553
:100CA00040E855E260E070E08CED92E00E940B12AB
:100CB0004CDC80E090E0E5DD81E090E0E2DDE5DC29
:100CC00062CDEF92FF920F931F93CF93EE24EA949D
:100CD000FE2C8CED92E00E949510181619060CF06F
:100CE00057C28CED92E00E94CE10C82F863519F4C1
:100CF00061E171E049C2893409F0B3C06EE271E08C
:100D00008CED92E092DF4091080150910901052E8F
:100D1000000C660B770B8CED92E00E946C108CED52
:100D200092E00E94F60F61E471E08CED92E07DDFCD
:100D30006FB1661F6627661F8CED92E088DF6CE45A
:100D400071E08CED92E071DF60B161708CED92E04A
:100D50007EDF67E571E08CED92E067DF60B166955C
:100D600061708CED92E073DF62E671E08CED92E0F1
:100D70005CDF60B162FB662760F98CED92E067DFB3
:100D80006DE671E08CED92E050DF8091AF02823031
:100D900028F4F89484EA92E067DA01C0F89440916C
:100DA000AB025091AC026091AD027091AE027894AA
:100DB0008CED92E063DF63E871E08CED92E035DF6B
:100DC00069B166FB662760F98CED92E040DF66E969
:100DD00071E08CED92E029DF8091A302823028F44B
:100DE000F89488E992E040DA01C0F89440919F02BB
:100DF0005091A0026091A1027091A20278948CEDB2
:100E000092E03CDF6CEA71E08CED92E00EDF63B1C2
:100E1000629561708CED92E01ADF6FEB71E08CED02
:100E200092E003DF63B1661F6627661F8CED92E0D8
:100E30000EDF65ED71E08CED92E0F7DE6CB162954E
:100E400061708CED92E003DF6CEE71E08CED92E06E
:100E5000ECDE6CB165FB662760F98CED92E0F7DEA5
:100E600038CF803359F447984598809190008F7D12
:100E70008093900043986CE271E086C1813721F441
:100E8000479A63E072E080C1873749F4459A8091C0
:100E900090008F7D8093900065E072E075C185368B
:100EA00021F4439A67E072E06FC1893531F4889884
:100EB00089988A9869E072E067C1893731F441986E
:100EC000409871986BE072E05FC18A3621F4889A8D
:100ED0006DE072E059C18B3621F4899A6FE072E0BF
:100EE00053C18C3621F48A9A61E172E04DC1853795
:100EF00021F4419A63E172E047C1893621F4409AB6
:100F000065E172E041C18F3621F4719A67E172E0C8
:100F10003BC1803521F4429A69E172E035C18037E6
:100F200021F442986BE172E02FC1883459F4ADDBB3
:100F3000892B09F046C010920901109208016DE159
:100F400072E022C18FEC8C0F833008F03DC080919D
:100F5000080190910901019671F497DB892B29F41E
:100F6000109209011092080106C06FE172E08CED49
:100F700092E05CDE0DC10C2F0C2E000C110B005307
:100F800011096091080170910901C8019ADB892B50
:100F9000A1F41093090100930801E091DC02F091A3
:100FA000DD020190F081E02D6C2F8CED92E009952F
:100FB0008CED92E00E94F60F8CCEF0920901E09247
:100FC00008016FE172E0E0C0C23541F480E090E0DA
:100FD00058DC892BB1F761E272E0D6C0C23741F428
:100FE00081E090E04EDC892B61F763E272E0CCC0D7
:100FF000C13651F460E070E080E090E098DC892B2D
:1010000001F765E272E0C0C0C33751F462E070E0FE
:1010100080E090E08CDC892BA1F667E272E0B4C03E
:10102000C43651F464E070E080E090E080DC892B0D
:1010300041F669E272E0A8C0C13459F461E070E0A1
:1010400080E090E074DC892B09F0BBCF6BE272E0AA
:101050009BC0C33559F463E070E080E090E067DC4A
:10106000892B09F0AECF6DE272E08EC0C43459F422
:1010700065E070E080E090E05ADC892B09F0A1CFB8
:101080006FE272E081C0CA3759F460E070E081E03D
:1010900090E04DDC892B09F094CF61E372E074C0DD
:1010A000C83759F462E070E081E090E040DC892BC1
:1010B00009F087CF63E372E067C0C33659F464E098
:1010C00070E081E090E033DC892B09F07ACF65E3B2
:1010D00072E05AC0CA3559F461E070E081E090E0F6
:1010E00026DC892B09F06DCF67E372E04DC0C8356F
:1010F00059F463E070E081E090E019DC892B09F09D
:1011000060CF69E372E040C0C33459F465E070E039
:1011100081E090E00CDC892B09F053CF6BE372E0A7
:1011200033C0C63649F480E090E056DB892B09F0E5
:1011300048CF6DE372E028C0C23649F481E090E008
:101140004BDB892B09F03DCF6FE372E01DC0CE363B
:1011500049F482E090E040DB892B09F032CF61E472
:1011600072E012C063E472E08CED92E05EDDE0912B
:10117000DC02F091DD020190F081E02D6C2F8CED0E
:1011800092E009956DE472E08CED92E04FDDA1CD27
:101190006AE070E080E090E0CF911F910F91FF90A6
:1011A000EF90DDC4883048F08632D0F5E82FF0E0CB
:1011B000E15AFD4F8081883098F5A82FB0E0FD01FD
:1011C000EE0FFF1FE054FD4F71836083282F2370C3
:1011D00030E0F901E053FF4F94914370220F331F29
:1011E00082FF0BC0E0916A0001C0440F2A95EAF724
:1011F000E9234E2B40936A000AC0E091690001C0C8
:10120000440F2A95EAF7E9234E2B409369002DB34A
:1012100081E090E001C0880FAA95EAF7822B8DBB90
:1012200008951F920F920FB60F9211240BB60F92D2
:101230002F933F934F935F936F937F938F939F93DE
:10124000AF93BF93EF93FF938091C0029091C1023F
:10125000892B29F0E091C002F091C1020995FF911C
:10126000EF91BF91AF919F918F917F916F915F911E
:101270004F913F912F910F900BBE0F900FBE0F908B
:101280001F9018951F920F920FB60F9211240BB654
:101290000F922F933F934F935F936F937F938F930F
:1012A0009F93AF93BF93EF93FF938091C20290916E
:1012B000C302892B29F0E091C202F091C302099583
:1012C000FF91EF91BF91AF919F918F917F916F911E
:1012D0005F914F913F912F910F900BBE0F900FBEDA
:1012E0000F901F9018951F920F920FB60F92112416
:1012F0000BB60F922F933F934F935F936F937F9310
:101300008F939F93AF93BF93EF93FF938091C4020A
:101310009091C502892B29F0E091C402F091C50299
:101320000995FF91EF91BF91AF919F918F917F911F
:101330006F915F914F913F912F910F900BBE0F9046
:101340000FBE0F901F9018951F920F920FB60F921D
:1013500011240BB60F922F933F934F935F936F938C
:101360007F938F939F93AF93BF93EF93FF9380915E
:10137000C6029091C702892B29F0E091C602F09134
:10138000C7020995FF91EF91BF91AF919F918F9106
:101390007F916F915F914F913F912F910F900BBE75
:1013A0000F900FBE0F901F9018951F920F920FB6BF
:1013B0000F9211240BB60F922F933F934F935F938D
:1013C0006F937F938F939F93AF93BF93EF93FF930D
:1013D0008091C8029091C902892B29F0E091C8023E
:1013E000F091C9020995FF91EF91BF91AF919F9143
:1013F0008F917F916F915F914F913F912F910F90BE
:101400000BBE0F900FBE0F901F9018951F920F925A
:101410000FB60F9211240BB60F922F933F934F9359
:101420005F936F937F938F939F93AF93BF93EF934C
:10143000FF938091CA029091CB02892B29F0E09111
:10144000CA02F091CB020995FF91EF91BF91AF9144
:101450009F918F917F916F915F914F913F912F91CC
:101460000F900BBE0F900FBE0F901F9018951F92FC
:101470000F920FB60F9211240BB60F922F933F933A
:101480004F935F936F937F938F939F93AF93BF938C
:10149000EF93FF938091CC029091CD02892B29F09C
:1014A000E091CC02F091CD020995FF91EF91BF91AF
:1014B000AF919F918F917F916F915F914F913F91EC
:1014C0002F910F900BBE0F900FBE0F901F9018958D
:1014D0001F920F920FB60F9211240BB60F922F93FB
:1014E0003F934F935F936F937F938F939F93AF93AC
:1014F000BF93EF93FF938091CE029091CF02892BFF
:1015000029F0E091CE02F091CF020995FF91EF9181
:10151000BF91AF919F918F917F916F915F914F910B
:101520003F912F910F900BBE0F900FBE0F901F9009
:1015300018951DBA109268001CBC10BE1FBA1092FC
:101540007A0010926E0010926F001092700010924C
:1015500071001092C9001092BC0011B814B817B8ED
:101560001AB81DB810BA12B815B818B81BB81EB8FA
:1015700011BA0895F894E1E6F0E020E820831082A3
:1015800083E084BD85BDEEE6F0E0808181608083EC
:1015900091E09093800082E0809381009093B0006E
:1015A0008093B100909390008093910086E880939F
:1015B0007A0020937B0010927E0010D378940895D7
:1015C0008E3270F4E4EDF0E0880FE80FF11D959194
:1015D000E491F0E08FB7F8942181922B91838FBF33
:1015E00008950F931F93CF93C82F8B01E9DF8C2FA2
:1015F00090E08C31910508F053C0FC01E45BFF4F93
:101600000C9439140115110521F4589884B58F7D77
:1016100003C008BD84B5806284BD4AC010938900B0
:101620000093880080918000806807C010938B0031
:1016300000938A008091800080628093800038C08F
:1016400010938D0000938C00809180008860F5CF0E
:101650000093B3008091B000806805C00093B4008F
:101660008091B00080628093B00022C010939900F6
:10167000009398008091900080680FC010939B00A9
:1016800000939A0080919000806207C010939D00A3
:1016900000939C008091900088608093900008C027
:1016A000EC2FF0E00038110514F435D001C02DD036
:1016B000CF911F910F9108958E3230F5AAEDA80FAA
:1016C000A83048F4E0E3F1E0AA0FEA0FF11DA5917C
:1016D000B0E0959103C09FEFA0E0B0E0E4EDF0E052
:1016E000880FE80FF11D2591E491F0E03FB7F894E1
:1016F0008181422F4095842381838281282B2283FC
:10170000EC91E923EC933FBF0895EE3250F4EE0FD5
:10171000EE56F44F0994EE3220F4EE0FE251F44FFE
:1017200009940895589AB6C0599AD0C05A9A089503
:101730005B9A08955C9A08955D9A08955E9A08955B
:101740005F9A0895709A0895719A0895409A08953D
:10175000419A0895429A0895439A0895449AC8C0B8
:10176000459AC0C0469AB8C0479A0895769A089597
:10177000779A0895289A0895299A08952A9A08959B
:101780002B9A08952C9A9CC02D9A88C02E9A8CC0B2
:101790002F9A90C0109A0895119A0895129A089558
:1017A000139A0895149A0895159A0895169A08950B
:1017B000179A0895749A0895759A0895889A0895C5
:1017C000899A08958A9A08958B9A08958C9A089513
:1017D0008D9A08958E9A08958F9A089558985AC0B0
:1017E000599874C05A9808955B9808955C98089524
:1017F0005D9808955E9808955F980895709808958B
:1018000071980895409808954198089542980895D0
:101810004398089544986CC0459864C046985CC04D
:101820004798089576980895779808952898089588
:10183000299808952A9808952B9808952C9840C0C7
:101840002D982CC02E9830C02F9834C01098089531
:10185000119808951298089513980895149808956A
:1018600015980895169808951798089574980895EE
:101870007598089588980895899808958A98089584
:101880008B9808958C9808958D9808958E98089552
:101890008F980895E4B5EF7DE4BD0895E091800050
:1018A000EF77E09380000895E0918000EF7DE09372
:1018B00080000895E0918000E77FE0938000089524
:1018C000E091B000EF77E093B0000895E091B000B0
:1018D000EF7DE093B0000895E0919000EF77E09302
:1018E00090000895E0919000EF7DE09390000895BE
:1018F000E0919000E77FE09390000895EE3258F475
:10190000EE0FEE0FFF27EC3718F4E157F34F099471
:10191000EF56F34F0994EE270895E1E00895E9B1F9
:10192000E170D9F70895E9B1E270B9F70895E9B126
:10193000E47099F70895E9B1E87079F70895E9B18D
:10194000E07159F70895E9B1E07239F70895E9B106
:10195000E07419F70895E9B1E078F9F60895ECB16B
:10196000E170D9F60895ECB1E270B9F60895E6B1E8
:10197000E17099F60895E6B1E27079F60895E6B15E
:10198000E47059F60895E6B1E87039F60895E6B1C5
:10199000E07119F60895E6B1E072E9F50895E6B14F
:1019A000E074C9F50895E6B1E078A9F50895ECB1C1
:1019B000E07489F50895ECB1E07869F50895E3B134
:1019C000E17049F50895E3B1E27029F50895E3B1B6
:1019D000E47009F50895E3B1E870E9F40895E3B11E
:1019E000E071C9F40895E3B1E072A9F40895E3B198
:1019F000E07489F40895E3B1E07869F40895E0B102
:101A0000E17049F40895E0B1E27029F40895E0B17D
:101A1000E47009F40895E1E00895E0B1E870D9F7C1
:101A20000895E0B1E071B9F70895E0B1E07299F777
:101A30000895E0B1E07479F70895E0B1E07859F7DE
:101A40000895ECB1E07139F70895ECB1E07219F73F
:101A50000895EFB1E170F9F60895EFB1E270D9F6AB
:101A60000895EFB1E470B9F60895EFB1E87099F612
:101A70000895EFB1E07179F60895EFB1E07259F68B
:101A80000895EFB1E07439F60895EFB1E07819F6F2
:101A90000895F89484B7877F84BF80916000806147
:101AA000809360001092600080E29EE40197F1F75D
:101AB00081E08093E00080E28093D80080E69AEE97
:101AC0000197F1F736DD0C9400FEFFCFF89431DD7D
:101AD00080E69AEE0197F1F70C940000FFCF8F9308
:101AE0008FB78F938091D0028D5F8D37D0F4809324
:101AF000D0028091D1028F5F8093D102D8F0809183
:101B0000D2028F4F8093D202A8F08091D3028F4FE0
:101B10008093D30278F08091D4028F4F8093D402C7
:101B200009C08D578093D0028091D1028E5F80933F
:101B3000D10228F78091D5028C5F8093D50258F0AE
:101B40008091D6028F4F8093D60228F08091D702E1
:101B50008F4F8093D7028F918FBF8F911895CF921F
:101B6000DF92EF92FF926B017C0119D09B01C114AF
:101B7000D104E104F10471F012D0621B730B683ED2
:101B80007340A8F381E0C81AD108E108F108285190
:101B90003C4FEDCFFF90EF90DF90CF9008950FB6C0
:101BA000F89466B515B27091D5028091D6029091E5
:101BB000D7020FBE10FE05C06F3F19F07C5F8F4F3C
:101BC0009F4F11240024660F001C660F001C702913
:101BD00008958091E80080FFFCCF08958091D8009F
:101BE00087FF02C085FF1BC081E88093D70080EA91
:101BF0008093D80086E189BD09B400FEFDCF80E95D
:101C00008093D8001092E0001092E8021092E70250
:101C10001092E6021092E1008DE08093E2000895B8
:101C20001F920F920FB60F9211240BB60F922F93A3
:101C30003F934F935F936F937F938F939F93AF9354
:101C4000BF93EF93FF939091E1001092E10093FF17
:101C500011C01092E90081E08093EB001092EC003B
:101C600082E28093ED0088E08093F0001092E80219
:101C70001092E60292FF1DC08091E8028823C9F00D
:101C80008091DB02882359F081508093DB0281111F
:101C900006C084E08093E9008AE38093E8008091A5
:101CA000DA02882331F081508093DA02811101C079
:101CB000F0DE90FF0CC080E18093E2001092E80219
:101CC00081E08093E70280EA8093D80019BC80917C
:101CD000E702882379F094FF0DC086E189BD09B43D
:101CE00000FEFDCF80E98093D8008DE08093E20074
:101CF0001092E702FF91EF91BF91AF919F918F9169
:101D00007F916F915F914F913F912F910F900BBEFB
:101D10000F900FBE0F901F9018951F920F920FB645
:101D20000F9211240BB60F92EF92FF920F931F9315
:101D30002F933F934F935F936F937F938F939F93D3
:101D4000AF93BF93CF93EF93FF931092E9008091ED
:101D5000E80083FF30C1C091F1008091F100E09074
:101D6000F100F090F1000091F1001091F10020914C
:101D7000F1003091F10092EF9093E800863009F085
:101D80003FC086E0E0E4F1E0459155914E155F05D6
:101D900011F0359615C0459155914017510711F036
:101DA00033960EC04591559184912F3F310519F01E
:101DB00010F02FEF30E0281708F4822F3EEF08C014
:101DC000815011F7F8C0891B3093E8008823A9F0EF
:101DD0009091E800292F2570D9F392FDEFC0982F3C
:101DE000813208F090E2292F222369F3FA0145910C
:101DF0004093F100AF012150F7CF903249F3DEC09C
:101E0000853049F48EEF8093E800E3DE8E2D806804
:101E10008093E300D3C0893001F5C111CCC0E092BA
:101E2000E8021092E6021092DB028EEF8093E80047
:101E300081E0E3E0F2E08093E90095919093EB007C
:101E4000992331F095919093EC0095919093ED004A
:101E50008F5F853081F78EE1A9C0883049F4C038A2
:101E600009F0A9C0B6DE8091E8028093F1007DC040
:101E7000813279F4C13A09F09EC0ABDEEAE0F1E0CC
:101E800087E08E0F90819093F10031968E13FACFF8
:101E90006CC0803209F047C0C13209F08CC080911B
:101EA000E80082FFFCCFEAE0F1E087E08E0F90913E
:101EB000F100908331968E13FACF8BEF8093E80078
:101EC0008EEF8093E80030910A0140910B018091E0
:101ED0000C0120910D0190E0A0E0B0E0DC01992719
:101EE0008827942B832BB22B86389105A105B10549
:101EF00021F48FE08093DA0261C086399105A10553
:101F0000B10509F05BC084E08093E9009FEF809108
:101F1000EE00837039F09093E8008091E80082FD34
:101F2000FCCFF5CFD3DD823231F4C13209F043C0AA
:101F3000E092E60204C0833221F4C132E1F549DEC9
:101F400014C0811116C045DEC23851F40093E90077
:101F50008091EB0085FB882780F91092E90001C091
:101F600080E08093F1001092F1008EEF8093E80002
:101F700025C0982F9D7F9130F1F4C230E1F4EF2815
:101F8000D1F40F779FEF900F9630A8F49EEF9093C7
:101F9000E8000093E900833071F089E18093EB0061
:101FA00081E090E001C0880F0A95EAF78093EA008B
:101FB0001092EA0003C081E28093EB00FF91EF9161
:101FC000CF91BF91AF919F918F917F916F915F91D1
:101FD0004F913F912F911F910F91FF90EF900F9094
:101FE0000BBE0F900FBE0F901F901895CF93DF93ED
:101FF00000D0CDB7DEB72DE029832AE02A83DC01AB
:10200000ED91FC910280F381E02D42E050E0BE01B1
:102010006F5F7F4F09950F900F90DF91CF910895DB
:10202000CF93DF93CDB7DEB72B970FB6F894DEBF13
:102030000FBECDBFDE011C96E3E34E9F44270E0E7C
:10204000411D302D5E9F5527400D511D6E9F662707
:10205000500D611D7E9F7727600D711D1124340F77
:10206000451F561F671F711D350F461F571F611DE6
:10207000711D370F411D511D611D711D76956795AD
:10208000579547953795EAE03E9F312D1124305DF5
:102090003E93411551056105710509F0CDCF22230D
:1020A00021F01197FD012DE22083FC012081318177
:1020B000AE014A1B5B0B445F5F4FF9012281338104
:1020C000BD01F90109952B960FB6F894DEBF0FBE3E
:1020D000CDBFDF91CF91089577FF09C070956095CE
:1020E000509541955F4F6F4F7F4F21E001C020E039
:1020F00097CF40DA0E9450060E946106FDCFCF9331
:10210000DF931F92CDB7DEB76983DC01ED91FC91BF
:102110000280F381E02D41E050E0BE016F5F7F4F10
:1021200009950F90DF91CF910895FC018FB7F89436
:102130009091E802911102C090E010C093E090935A
:10214000E9009091F200911109C02091E80022FF6E
:10215000F3CF25FDF1CF2BE62093E8008FBF20853C
:10216000318537FD03C09F3F09F09F5F892F90E0C5
:102170000895CF93DF93EC018885998597FF09C077
:10218000E881F9810284F385E02DCE0109959987D4
:10219000888788859985DF91CF910895FC012085F6
:1021A000318537FD07C04FEF5FEF51874087C90189
:1021B000992708959FB7F8948091E802882369F0E1
:1021C00083E08093E9002BE68091E80085FD09C05B
:1021D00082FF03C02093E800F7CF9FBF8FEF9FEFF0
:1021E00008958091F1002091E80025FD03C02BE6C1
:1021F0002093E8009FBF90E008958091E802882333
:1022000061F08FB7F89494E09093E9009091F20018
:102210008FBF80E4891B90E0089580E090E00895EE
:10222000DF92EF92FF920F931F93CF93DF938C0176
:10223000EB018091E802882371F07FB7F89484E085
:102240008093E9008091D902882369F08091E800A9
:1022500085FD07C07FBF81E0F801828320E030E088
:10226000D1C01092D90220E030E064E080E4F82E82
:10227000A1EFB0E09AE3E92EE3E0DE2E411551052F
:1022800009F4BFC08091E400815F9091E80095FD62
:1022900016C07FBF9091E400981304C081E0809342
:1022A000D90205C09091E802911104C081E0F801C3
:1022B0008283A8C07FB7F8946093E900E6CF80914D
:1022C000F2009F2D981BE92FF0E04E175F0708F4EE
:1022D000942FE92FF0E04E1B5F0B2E0F3F1FE0E421
:1022E000E91BE03428F4EE0FFF27E758FE4E09946F
:1022F00080C099919C9399919C9399919C93999169
:102300009C9399919C9399919C9399919C93999169
:102310009C9399919C9399919C9399919C93999159
:102320009C9399919C9399919C9399919C93999149
:102330009C9399919C9399919C9399919C93999139
:102340009C9399919C9399919C9399919C93999129
:102350009C9399919C9399919C9399919C93999119
:102360009C9399919C9399919C9399919C93999109
:102370009C9399919C9399919C9399919C939991F9
:102380009C9399919C9399919C9399919C939991E9
:102390009C9399919C9399919C9399919C939991D9
:1023A0009C9399919C9399919C9399919C939991C9
:1023B0009C9399919C9399919C9399919C939991B9
:1023C0009C9399919C9399919C9399919C939991A9
:1023D0009C9399919C9399919C9399919C93999199
:1023E0009C9399919C9399919C9399919C93999189
:1023F0009C938091E80085FFE092E800D092DB0298
:102400003DCF7FBFC901DF91CF911F910F91FF9009
:10241000EF90DF9008952FEF3FEFFC013187208789
:10242000DDDB0FB6F8948091D1029091D202A09199
:10243000D302B091D4020FBE9C018091E8028823A0
:1024400029F068EC70E080E090E089CB8091E702B1
:10245000882301F10FB6F8948091D1029091D202B5
:10246000A091D302B091D4020FBE4091E702442361
:1024700089F00FB6F8944091D1025091D202609148
:10248000D3027091D4020FBE481B590B4B3F51052C
:1024900060F311C00FB6F8948091D1029091D202EE
:1024A000A091D302B091D4020FBE821B930B853C46
:1024B000994008F4C2CF08959FB7F8948091E8023C
:1024C000882321F08091DB02811102C09FBF089513
:1024D00084E08093E9008AE38093E8001092DB02B5
:1024E000F5CFEACFECEDF2E08AE0DF011D928A95AC
:1024F000E9F788EE93E0A0E0B0E083839483A583BE
:10250000B68389E892E09183808308955058BB2771
:10251000AA270ED00DC1FED030F003D120F031F447
:102520009F3F11F41EF4F3C00EF4E095E7FBE9C001
:10253000E92F0FD180F3BA17620773078407950755
:1025400018F071F49EF527C10EF4E0950B2EBA2F0A
:10255000A02D0B01B90190010C01CA01A0011124A9
:10256000FF27591B99F0593F50F4503E68F11A1655
:10257000F040A22F232F342F4427585FF3CF4695E6
:1025800037952795A795F0405395C9F77EF41F1608
:10259000BA0B620B730B840BBAF09150A1F0FF0FD2
:1025A000BB1F661F771F881FC2F70EC0BA0F621FBE
:1025B000731F841F48F4879577956795B795F795AE
:1025C0009E3F08F0B3CF9395880F08F09927EE0F40
:1025D00097958795089571D008F481E0089504D007
:1025E0006894B111D9C00895BCD088F09F5790F07D
:1025F000B92F9927B751A0F0D1F0660F771F881F28
:10260000991F1AF0BA95C9F712C0B13081F0C3D042
:10261000B1E00895C0C0672F782F8827B85F39F0E0
:10262000B93FCCF3869577956795B395D9F73EF486
:1026300090958095709561957F4F8F4F9F4F08952E
:10264000E89409C097FB3EF490958095709561954C
:102650007F4F8F4F9F4F9923A9F0F92F96E9BB2702
:102660009395F695879577956795B795F111F8CF7E
:10267000FAF4BB0F11F460FF1BC06F5F7F4F8F4FE9
:102680009F4F16C0882311F096E911C0772321F0DF
:102690009EE8872F762F05C0662371F096E8862F77
:1026A00070E060E02AF09A95660F771F881FDAF7CE
:1026B000880F9695879597F90895990F0008550FFB
:1026C000AA0BE0E8FEEF16161706E807F907C0F0B8
:1026D00012161306E407F50798F0621B730B840BC0
:1026E000950B39F40A2661F0232B242B252B21F49A
:1026F00008950A2609F4A140A6958FEF811D811D3A
:10270000089597F99F6780E870E060E008959FEF73
:1027100080EC089500240A94161617061806090678
:10272000089500240A941216130614060506089547
:10273000092E0394000C11F4882352F0BB0F40F4CF
:10274000BF2B11F460FF04C06F5F7F4F8F4F9F4F0F
:10275000089557FD9058440F551F59F05F3F71F091
:102760004795880F97FB991F61F09F3F79F08795F8
:102770000895121613061406551FF2CF4695F1DF81
:1027800008C0161617061806991FF1CF8695710511
:10279000610508940895E894BB2766277727CB0145
:1027A00097F908958ADF08F48FEF08950BD0C0CF12
:1027B000B1DF28F0B6DF18F0952309F0A2CFA7CF3C
:1027C0001124EACFC6DFA0F3959FD1F3950F50E017
:1027D000551F629FF001729FBB27F00DB11D639FD3
:1027E000AA27F00DB11DAA1F649F6627B00DA11D79
:1027F000661F829F2227B00DA11D621F739FB00D1F
:10280000A11D621F839FA00D611D221F749F33278E
:10281000A00D611D231F849F600D211D822F762F27
:102820006A2F11249F5750408AF0E1F088234AF024
:10283000EE0FFF1FBB1F661F771F881F9150504070
:10284000A9F79E3F510570F05CCFA6CF5F3FECF338
:10285000983EDCF3869577956795B795F795E7955C
:102860009F5FC1F7FE2B880F911D9695879597F96D
:102870000895EE0FFF1F0024001C0BBE0790F69179
:08288000E02D0994F894FFCF4C
:102888002D001C001D001E00FFFF00E100000000DD
:1028980008466C792050686F746F626F6F74682097
:1028A8002D2056657273696F6E20382E300043757F
:1028B8007272656E7420706F736974696F6E3A20F6
:1028C8000053776974636820483A20005377697425
:1028D800636820313A200053776974636820323A7C
:1028E800200053776974636820333A20004C6F776F
:1028F80065722076616E6520706F736974696F6E9A
:102908003A20004C6F7765722076616E6520696E9B
:102918006465783A200055707065722076616E653E
:1029280020706F736974696F6E3A20005570706516
:10293800722076616E6520696E6465783A2000477A
:10294800617465207377697463682028696E70758F
:1029580074293A2000476174652073776974636845
:1029680020286F7574707574293A20004761746562
:10297800207377697463682028636C6F73656429B2
:102988003A2000710077006500590079006A006BF1
:10299800006C00750069006F005000700048004628
:1029A800005200720061007300640041005300444B
:1029B800007A00780063005A0058004300660062FD
:1029C800006E00436F6D6D616E6420270027206ED6
:1029D8006F7420756E64657273746F6F642E000077
:1029E800010203FFFFFFFFFFFFFFFFFFFFFFFFFFE6
:1029F800FF0607FFFFFFFFFFFFFFFFFFFFFFFFFFD0
:102A0800FFFFFF0405000000007F101011FD10718A
:082A1800129510CE10B9100058
:00000001FF
